{
  "contractName": "Ownable",
  "abi": [
    {
      "inputs": [],
      "stateMutability": "nonpayable",
      "type": "constructor"
    },
    {
      "inputs": [],
      "name": "isOwner",
      "outputs": [
        {
          "internalType": "bool",
          "name": "",
          "type": "bool"
        }
      ],
      "stateMutability": "view",
      "type": "function"
    }
  ],
  "bytecode": "0x6080604052348015600f57600080fd5b50336000806101000a81548173ffffffffffffffffffffffffffffffffffffffff021916908373ffffffffffffffffffffffffffffffffffffffff16021790555060da8061005e6000396000f3fe6080604052348015600f57600080fd5b506004361060285760003560e01c80638f32d59b14602d575b600080fd5b6033604d565b604051808215151515815260200191505060405180910390f35b60008060009054906101000a900473ffffffffffffffffffffffffffffffffffffffff1673ffffffffffffffffffffffffffffffffffffffff163373ffffffffffffffffffffffffffffffffffffffff161490509056fea264697066735822122009cc16eaa71ef7c60685713873ceeb981fb19acff5e5c220c22b99497e16f04264736f6c63430006010033",
  "source": "pragma solidity ^0.6.0;\n\ncontract Ownable {\n    \n    address payable _owner;\n    \n    constructor() public {\n        _owner = msg.sender;\n    }\n    \n    modifier onlyOwner() {\n        require(isOwner(), \"You are note the owner\");\n        _;\n    }\n    \n    function isOwner() public view returns(bool) {\n        return(msg.sender == _owner);\n    }\n    \n    \n}",
  "sourcePath": "/Users/robinbeltran/cursos/react-truffle/contracts/Ownable.sol",
  "compiler": {
    "name": "solc",
    "version": "0.6.1+commit.e6f7d5a4.Emscripten.clang"
  },
  "schemaVersion": "3.1.0",
  "updatedAt": "2020-05-10T02:30:18.643Z",
  "devdoc": {
    "methods": {}
  },
  "userdoc": {
    "methods": {}
  }
}